:020000001828BE
:10000800803120007F08FD000B1D0B280C281428C8
:10001800863175268031FB30FC007C088B0514285E
:100028007D082000FF0009008801932D2000D601DB
:100038008531D425803185310B2580318631542690
:1000480080318631432680318731032780318631DC
:10005800C72680318631322680318431B2248031FE
:100068008531E92580318431E024803120000E1566
:100078008E16D401D5015508803AFF0080307F02E2
:10008800031D482806305402031C4B284C284E28D0
:1000980069286928E2302000C6000430C70086318C
:1000A8002126803101302000D4070030D53D550885
:1000B800803AFF0080307F02031D64280630540216
:1000C800031C672868284E28692820003A08013A46
:1000D800031D6F28702884284408013A03197528DD
:1000E80076287C284408013A031D7B287C287E2832
:1000F800BB0188283A08D3005308BB008828882801
:10010800BB010314BB0D88288531A92580318631B0
:10011800FC2680312000C201B601B70193282000D7
:10012800C208031D98289928AC28873106278031F2
:1001380085312D2580318631E926803120000C1942
:10014800A628A72893288631F62680319328932855
:1001580020004208013A031DB228B32893287F30B3
:10016800D30053088B05FE30D300530821009D05AA
:1001780086316526803186319326803120003A0801
:10018800013A031DC828C928CE28FF30D3005308D8
:10019800D600D028D601D02820008E18D428D528FB
:1001A800DB2856080907D3005308D600E3288E1C1D
:1001B800DE28DF28E3280314D60DE328E3285608B1
:1001C800FF3A031DE828E928F028BA08031DED289E
:1001D800EE28F02809290929D608031DF428F5284E
:1001E800FD283A08013A031DFA28FB28FD280929A9
:1001F80009290C190029012904298631F62680319C
:10020800873106278031D028D028C201B601B7012E
:100218008531D425803121001D1487310327803191
:10022800932893289328932818288631DE2681312D
:100238002000CE004E08BF00D7293F08013A031D11
:1002480026292729412917302D02703003192C023D
:1002580003182F29302941294E3087310827813149
:1002680004302000CE004E08BC008531A92581311C
:1002780002308531FD258131E329173020002D0218
:10028800703003192C02031C4A294B29E329013039
:1002980087310827813104302000CE004E08BC0089
:1002A8008531A9258131E329E329E32920003F0885
:1002B800013A031D60296129832917302D02703006
:1002C80003192C02031869296A2983296B3087319D
:1002D8000827813102302000C6000030C70086316F
:1002E8002126813104302000CE004E08BC00853123
:1002F800A925813104308531FD258131E329173065
:1003080020002D02703003192C02031C8C298D2922
:10031800E329183087310827813104302000CE00C6
:100328004E08BC008531A9258131E329E329E32959
:100338002000BF08031DA129A229BC2901302D02D4
:10034800F53003192C02031CAA29AB29BC298230D9
:1003580087310827813104302000CE004E08BC00C8
:100368008531A925813101308531FD258131E32988
:10037800173020002D02703003192C02031CC529E8
:10038800C629E3292E30873108278131043020001F
:10039800CE004E08BC008531A9258131E329E32927
:1003A800E329E329E32920003C08013A031921291C
:1003B800033A03195A29013A03199C29E329080029
:1003C80020003B083A060319EA29EB29852A3C084C
:1003D800043A0319F029F129F729BC08031DF52966
:1003E800F629852AF72900303302C9300319320269
:1003F800031CFF29002A852A863110268131C8303E
:100408002000C6000030C7008631212681318631A0
:10041800DE2681312000CC004C08BF003A08013AA2
:10042800031D172A182A512A3F08013A031D1D2ABD
:100438001E2A222A8531A92581317F2A2000BF085A
:10044800031D272A282A7F2AB908031D2C2A2D2AAA
:10045800392A3F308731082781312000BC01031435
:10046800BC0D8631AD2681317F2A20003908013A3A
:10047800031D3F2A402A7F2A5D30873108278131B2
:1004880002302000CC004C08BC008631A026813107
:100498007F2A7F2A7F2A7F2A7F2A2000BA08031D05
:1004A800562A572A7F2A3F08013A031D5C2A5D2AEB
:1004B8006A2A793087310827813103302000CC003F
:1004C8004C08BC008631AD2681317F2A2000BF0848
:1004D800031D6F2A702A7F2A8B30873108278131C4
:1004E80004302000CC004C08BC008531A92581319E
:1004F8007F2A7F2A7F2A20003A08CC004C08BB00BC
:04050800852A080038
:1006000000344D3420346134753474346F34203404
:1006100063346C346F347334653420347434693427
:100620006D3465346F34753474340D340A340034E9
:100630004D3420346D3461346E34203463346C3482
:100640006F34733465342034743469346D346534F4
:100650006F34753474340D340A3400344D3420341E
:100660006F34703465346E342034743469346D34CE
:1006700065346F34753474340D340A3400344334C3
:1006800020346134753474346F34203463346C3402
:100690006F34733465340D340A3400344D342034EF
:1006A0006134753474346F34203463346C346F3493
:1006B000733465340D340A340034433420346D34DB
:1006C00061346E34203463346C346F347334653485
:1006D0000D340A3400344D3420346D3461346E34BA
:1006E000203463346C346F34733465340D340A341D
:1006F0000034433420346F34703465346E340D3438
:100700000A3400344D3420346F34703465346E3420
:100710000D340A34003443342034733474346F3469
:1007200070340D340A34003401302000A807003042
:10073000A93D8E1C9C2B9D2BA12B0130AA070030BC
:10074000AB3D00302902503003192802031CA92BAD
:10075000AA2B102CFA01FB010130B6070030B73D7F
:10076000043084318124833171082000B301B30740
:100770007008B201B20700302B02333003192A028D
:10078000031CC32BC42BC72B0314B80DCD2B380867
:100790000907F9007908B800CD2B3808FF3A031D86
:1007A000D22BD32BD72BBA010314BA0DDF2BB808E9
:1007B000031DDB2BDC2BDF2BBA01DF2BDF2B003003
:1007C0003702653003193602031CE72BE82B032C94
:1007D0003A083B06031DED2BEE2B032C3C08043A94
:1007E0000319F32BF42BF92BBC08031DF82BF92B61
:1007F000032C0C1DFC2BFD2B032CB601B701C201F1
:100800000314C20D032C0030A7000030A6000030F6
:10081000A5000030A400A801A901AA01AB01102C79
:1008200008002000CA00C9017F30C80048088B05B5
:10083000422C1A2C230095181E2C1F2C1A2C202C0D
:1008400020004A082300910001302000C800480819
:10085000CA0746088600870101082300930001307B
:100860002000C8004808C60723001515553096001B
:10087000AA30960095143C2C95183F2C402C3C2C0B
:100880001511422C01302000C7024708FF3A031D12
:100890004A2C4B2C1A2C8B1708002000C900772CEF
:1008A000512C23001518552C562C512C572C200058
:1008B00049082300910001302000C8004808C907FA
:1008C0002300951315131514652C1518682C692C25
:1008D000652C6A2C13082000C80046088600870192
:1008E000480881000130C8004808C607772C01304D
:1008F000C7024708FF3A031D7E2C7F2C512C802C09
:100900000800F600F701F8018330F20072082100B8
:100910009D057608F2000130F235FF3E031D8C2C58
:100920007235F30073089D049D14962C9D18992C24
:100930009A2C962C9B2C1B08F200F3011C08F40047
:10094000F5017408F500F40172087404F7007308E7
:100950007504F8007808F101F1077708F001F00755
:10096000B12C0800DB302000C60046088E05DB30C5
:10097000C600460821008E05FB302000C600460850
:1009800023008E05DF302000C600460823008E05B8
:10099000FB302000C600460824008E05DF30200012
:1009A000C600460824008E0521000C1620000C16F7
:1009B000EF30C600460823008C0524000C16080002
:1009C0002000CD012300950143302000CB004B08CF
:1009D000C6000330CC004C08C700003084314D24E1
:1009E000843120004308AB3A0319F72CF82C0A2D68
:1009F000C401AB30CB004B08C3004330CB004B08E5
:100A0000C6000330CC004C08C700003084311124EC
:100A100084310A2D080021009517BF302000C60040
:100A2000460821009505DF302000C6004608210059
:100A30009505EF302000C600460821009505F730E7
:100A40002000C600460821009505F8302000C600A9
:100A5000460821009505151508002000570859067D
:100A60000319332D342D492DD908031D382D392D67
:100A70003E2D00308531BF258531432D0130853134
:100A8000BF258531432D20005908C7004708D700EE
:100A9000492D080020003C08013A0319502D512D22
:100AA0005E2D3C08023A0319562D572D5E2D3C0849
:100AB000033A031D5C2D5D2D632D5E2D0130AC07C7
:100AC0000030AD3D632D0800031020008C1A031484
:100AD000D80D5808FF3A031D6E2D6F2D732DD901C7
:100AE0000314D90D7B2DD808031D772D782D7B2D70
:100AF000D9017B2D7B2D08002000C701C7011430D0
:100B00004702031C842D852D872D922D922D0130B7
:100B1000C6004608C70714304702031C902D912DCC
:100B2000872D922D0800203084000030850026306B
:100B30008631F0268531873100278531D70087310E
:100B400001278531D800873102278531D90020005F
:100B50001A2820000E08CA004A08CB004B15CB16F5
:100B60004B088E00AC01AD01C830C6000030C70094
:100B70008631212685318631852685310800200081
:100B8000C600C608031DC52DC62DCA2DB901031404
:100B9000B90DD32D4608013A031DCF2DD02DD32DED
:100BA000B901D32DD32D08002100991387302000DF
:100BB000C60046082100990558302000C6004608A6
:100BC00021009904FC302000C60046082100990548
:100BD00008008631D326853121009E178F302000F2
:100BE000C700470821009E051E08FC302000C700F2
:100BF000470821009E051D1408002000CD004D0867
:100C0000CB004B08C4004330CB004B08C600033078
:100C1000CC004C08C7000030843111248531080015
:100C20002000C90185317C25863120000E08C800CE
:100C30004808C900F730C8004808C90549088E00AF
:100C4000080020004708B101B1074608B001B0070D
:100C50002A2E2A2E31083004031D2F2E302E2A2E44
:100C6000312E0800F7302000C600460821008E050E
:100C7000F7302000C60046088E05F730C60046084B
:100C800023008E05080021009515DF302000C600E6
:100C9000460821009505053020009500FB30C60070
:100CA00046088B058B16080021008E14FD302000AD
:100CB000C600460823008E0521000C15FB302000DD
:100CC000C600460823008C05080020000E08C60058
:100CD0004608C700FB30C6004608C705DF30C6001F
:100CE0004608C70547088E0008000530200095001B
:100CF00085316425863183319423863185314A25B7
:100D000086318631BA26863108002000C901853136
:100D10007C25863120000E08C8004808C900C91586
:100D200049088E00080087302000C60046082100D0
:100D300099050000000021001908000000000800CB
:100D400020000E08C6004608C7004715DF30C60061
:100D50004608C70547088E00080020000E08C60098
:100D60004608C700FB30C6004608C705C716470837
:100D70008E0008002000310830040319C02EC12E57
:100D8000C62E0130B0020030B13BC62E0800210053
:100D90008C1620008C16DF30C600460823008C0518
:100DA00024008C16080021000E1423000E14FE30BF
:100DB0002000C600460824008E05080020000C1AFA
:100DC000E22EE32EE62E0130E82EE82E0030E82E4B
:100DD00008008131E42186318131192186310800F2
:100DE000640080010131890BF12E0034210097014C
:100DF0001714FA2EFA2E08001B3021009700080065
:100E00000134FF3401348B170B170800640008000D
:020E10000800D8
:020000040001F9
:04000E006CFFFFDCA8
:00000001FF
